:020000040800F2
:100000000050002021020008270200082B020008EF
:100010009D020008A1020008E9020008000000009B
:100020000000000000000000000000003103000894
:100030003503000800000000390300083D030008F4
:100040004D0300084D0300084D0300084D03000850
:100050004D0300084D0300084D0300084D03000840
:100060004D0300084D0300084D03000881070008F8
:10007000A1070008C1070008E107000801080008FF
:1000800021080008410800084D0300084D0300083E
:100090004D0300084D0300084D0300084D03000800
:1000A0004D0300084D0300084D0300084D030008F0
:1000B0004D0300084D0300084D0300084D030008E0
:1000C0004D0300084D0300084D0300084D030008D0
:1000D0004D030008C90E00089D0F000871100008AC
:1000E0004D0300084D0300084D0300080000000008
:1000F0000000000000000000000000000000000000
:1001000000000000000000005FF808F100B583B0B7
:1001100000F0AAF9304B314A1360314A1360314B79
:10012000314A32498B4204D21168196004330432D7
:10013000F7E72A4B1A682E4B9A4200D0FEE7284B6D
:100140001A682C4B9A42F9D1234B2B4A13602B4A45
:1001500013602B4B02E000221A600433294A9342B9
:10016000F9D3254B1B6813B9244B1B6803B1FEE779
:1001700000F086F9694601A800F022F9224C234BD1
:10018000E41AA4100025AC4214DC214C214BE41AE3
:10019000A4100025AC4213DC0099019801F09CF8F2
:1001A00005461D4C1D4BE41AA410002C0EDC2846FD
:1001B00000F0E2F8154B53F8253098470135E2E797
:1001C000144B53F8253098470135E3E7013C134BB6
:1001D00053F824309847E8E7BABADECA0000002096
:1001E0008401002000000020F8270008880100207A
:1001F0007856341232547698880100208406002004
:100200008801002088060020780300087803000891
:1002100078030008780300087803000878030008D2
:1002200008B5FFF773FF00BEFEE71EF0040F0CBF1A
:10023000EFF30880EFF309807146414A10472DE93A
:10024000F04182B004468846124B5E6B9F6B9D6AFC
:100250001B6B13F0020F03D00E4BDB6A002B0CDB81
:100260000D4800F0B5F8CDF800803B4632462946EF
:10027000204600F009F900BEFEE74BF6AB6100F046
:100280007DF90028ECD0034B4FF00042DA6202B057
:10029000BDE8F08100ED00E07427000800BEFEE735
:1002A0001EF0040F0CBFEFF30880EFF309807146D6
:1002B000244A10472DE9F04182B004468846084B95
:1002C0005E6B9F6B9D6A074800F082F8CDF8008056
:1002D0003B4632462946204600F0D6F800BEFEE7EF
:1002E00000ED00E0842700081EF0040F0CBFEFF3C0
:1002F0000880EFF309807146134A10472DE9F04159
:1003000082B004468846084B5E6B9F6B9D6A074827
:1003100000F05EF8CDF800803B4632462946204684
:1003200000F0B2F800BEFEE700ED00E09027000804
:1003300000BEFEE700BEFEE700BEFEE7704700001D
:100340003F020008B5020008FD02000800BEFEE7FB
:10035000F82700080000002088010020F827000886
:100360000000000000000000880100208806002036
:08037000000000000000000085
:10037800FEE7000008B503460C4A12685AB10B4A5A
:100388001068033323F003030344094A934206D851
:10039800064A136008BD054A06491160EFE701F0F7
:1003A80027FD0C2303604FF0FF30F3E78C0100209A
:1003B800004C00208806002001230360014B0B60DD
:1003C800704700BF040000200FB400B583B004AB31
:1003D80053F8042B01938021064801F03BFD0028C7
:1003E80003DD0146034800F037F803B05DF804EB7D
:1003F80004B07047940100202DE9F04385B004460D
:100408000F4643560BB10E461EE0042528462146EA
:10041800ABBE0446384605B0BDE8F08314F9011BAD
:1004280004AA1A4402F8101C0133AB42F6D304AAFA
:100438001344002203F8102C4FF00408E946404604
:100448004946ABBE8046761B002EE3D03546102EBB
:1004580028BF10250023E8E708B5FFF7CDFF08BD42
:1004680008B500F0FDF8024A024B9A6008BD00BFCB
:100478000000000800ED00E008B500F019F908BD1B
:10048800F8B504460D4617461E462748FFF79CFF59
:1004980021682648FFF798FF61682548FFF794FF11
:1004A800A1682448FFF790FFE1682348FFF78CFF15
:1004B80021692248FFF788FF61692148FFF784FF17
:1004C800A1692048FFF780FFE1691F48FFF77CFF1B
:1004D8001E48FFF779FF29461D48FFF775FF1D4C99
:1004E800E16A1D48FFF770FF216B1C48FFF76CFF9E
:1004F800E16B1B48FFF768FF15F0800F0AD115F470
:10050800004F0CD11748FFF75FFF06991648FFF711
:100518005BFFF8BD39461548FFF756FFEFE7314650
:100528001348FFF751FFEDE7582600086826000832
:10053800782600088826000898260008A8260008BB
:10054800B8260008C8260008D8260008E8260008AB
:10055800F426000800ED00E004270008142700082E
:1005680024270008542700085C27000834270008BF
:100578004427000883691A888A4201D000207047FE
:100588000268033A012A03D80233836101207047C5
:100598000020704782B00023019300932C4A13680F
:1005A80043F4803313602A4B1B6803F40033009331
:1005B800019B01330193009B1BB9019BB3F5A06F0D
:1005C800F1D1234B1B6813F4003F06D0012300939D
:1005D800009B012B04D002B0704700230093F7E77B
:1005E8001C4B1A6842F010021A601A6822F00302C3
:1005F8001A601A6842F002021A60A3F580535A681A
:100608005A605A685A605A6842F480625A605A6856
:1006180022F47C125A605A6842F4E8125A601A6846
:1006280042F080721A600A4B1B6813F0007FFAD000
:10063800074B5A6822F003025A605A6842F00202D5
:100648005A60034B5B6803F00C03082BF9D1C2E72F
:10065800001002400020024008B5FFF79BFF08BDCC
:1006680008B5104B1A6842F001021A6059680E4A20
:100678000A405A601A6822F0847222F480321A60A2
:100688001A6822F480221A605A6822F4FE025A601C
:100698004FF41F029A60FFF7DFFF044B4FF0006230
:1006A8009A6008BD001002400000FFF800ED00E06D
:1006B8001F4B5B6803F00C03042B15D0082B17D0D5
:1006C8001BB11C4B1C4A1A6002E01A4B1A4A1A60EA
:1006D800174B5B68C3F30313184AD35CDAB21549A6
:1006E8000B68D3400B607047124B134A1A60EFE750
:1006F8000F4A53685268C3F38343023312F4803FAE
:100708000AD00B4A526812F4003F0BD00C4A02FB85
:1007180003F3084A1360DBE7094A02FB03F3054ABF
:100728001360D5E7044A02FB03F3024A1360CFE7DC
:10073800001002401C00002000127A000C0000206B
:1007480000093D0008B501F08BF9094901F0D6F818
:1007580001F02EFB01F084F9064901F08DFA01F051
:1007680027FB002301E000BF01338342FBD308BD10
:10077800F573CE3BEE17C63908B5054A536803F042
:100788000F035360034B1B6803B1984708BD00BFB4
:10079800000002401402002008B5054A536843F0DF
:1007A800F0035360034B5B6803B1984708BD00BF73
:1007B800000002401402002008B5054A536843F4BB
:1007C80070635360034B9B6803B1984708BD00BF33
:1007D800000002401402002008B5054A536843F49B
:1007E80070435360034BDB6803B1984708BD00BFF3
:1007F800000002401402002008B5054A536843F47B
:1008080070235360034B1B6903B1984708BD00BFB1
:10081800000002401402002008B5054A536843F45A
:1008280070035360034B5B6903B1984708BD00BF71
:10083800000002401402002008B5054A536843F03E
:1008480070635360034B9B6903B1984708BD00BFB1
:100858000000024014020020114BDB6813F0010F66
:10086800FAD10F4A136943F00103136101800C4B5D
:10087800DB6813F0010FFAD1094AD36823F020038B
:10088800D360C1F30F414180054BDB6813F0010FC2
:10089800FAD1034A136923F001031361704700BFBB
:1008A8000020024030B4154BDB6813F0010FFAD179
:1008B800124C236943F00103236100240FE031F84F
:1008C800143020F814300D4BDB6813F0010FFAD107
:1008D8000A4DEB6823F02003EB600134A4B2B4EBBB
:1008E800520FECD3054BDB6813F0010FFAD1034A22
:1008F800136923F00103136130BC704700200240E4
:100908000C4BDB6813F0010FFAD10A4B1A6942F05D
:1009180002021A6158611A6942F040021A61054BD5
:10092800DB6813F0010FFAD1024A136923F00203BE
:100938001361704700200240054BDB6813F0010F7C
:10094800FAD1034B034A5A6002F188325A60704761
:100958000020024023016745012A01D04161704708
:10096800016170478068C84000F001007047028844
:1009780000230F2B33D870B419E012F0010F11D0F7
:100988004668A3F1080189000F2404FA01F5746888
:1009980024EA050474604568847804FA01F16C68F7
:1009A8000C436C6052080133DBB20F2B15D8072BB0
:1009B800E3D812F0010FE0D041689C000F2505FA3A
:1009C80004F60D6825EA06050D604568817801FA88
:1009D80004F4296821432960E4E770BC7047704734
:1009E800430900F01F009B0003F1604303F56143D6
:1009F800012202FA00F0186070470000420900F076
:100A08001F00012303FA00F0014B43F8220070474E
:100A180080E200E0104B5B681B09083B072B15D8E8
:100A2800DFE803F0041606080A0C0E11022010E095
:100A380008200EE010200CE040200AE0802008E0AA
:100A48004FF4807005E04FF4007002E0012000E0F0
:100A5800042000F0DF00704700100240044B586883
:100A6800C0F383400E2801D8023070471020704729
:100A78000010024010B5084B5B6813F4803F09D0A2
:100A8800054B5B680824FFF7E9FF00FB04F000F062
:100A9800FC0010BD0424F6E700100240024B586821
:100AA80000F00300704700BF0010024010B5FFF7C8
:100AB800F5FF012805D9022804D1FFF7DBFF04461A
:100AC80000E00824FFF7A6FFB4FBF0F0C0B210BDA9
:100AD800012808D002280BD0043B032B13D8DFE8E9
:100AE80003F00C140E100A4B5B68C3F30223F3E700
:100AF800074B5B68C3F3C223EEE702207047082068
:100B0800704710207047012070470420704700BFCD
:100B180000100240012812D018B102281DD0002070
:100B2800704732B1012AFAD1134A53691943516106
:100B3800F5E7114A536923EA01015161EFE732B140
:100B4800012AECD10C4AD3691943D161E7E70A4A73
:100B5800D36923EA0101D161E1E732B1012ADED18B
:100B6800054A936919439161D9E7034A936923EACE
:100B780001019161D3E700BF0010024000000000AE
:100B88002DE970430446154683899BB223F41E530E
:100B980023F02C03CA8808890243134343F4005204
:100BA80010F0040F01D042F0200210F0080F01D01D
:100BB80042F04002A28123889BB223F040039BB2FB
:100BC8002380238A9BB223F478539BB2CA89002AD4
:100BD8004AD18A898888024313432382A38A9BB215
:100BE80023F0C0034A891343A382086800F038FF42
:100BF8000646214800FB05F000F036FF05464FF099
:100C08008341304600F084FF0146284601F034F85D
:100C1800054601F0CDF8064600F022FF01462846B9
:100C280000F06CFE4FF0834100F072FF054600F0C3
:100C380081FD80468946284601F0BAF8054600F04D
:100C480057FD0BA3D3E9002300F016FC02460B4620
:100C58004046494600F044FE00B1013505EB061553
:100C6800ADB22581BDE87083088A02431343B4E717
:100C78005C8FC2F5285CDF3F40420F004FF41653EB
:100C8800036000238380C3800C2202814381838117
:100C9800C38103827047818070478088C0B27047E3
:100CA8000388194201D0012070470020704703884B
:100CB8009BB223F040039BB20380704703889BB22A
:100CC80023F020039BB20380704703889BB223F470
:100CD80080739BB203807047F8B5002404B1F8BD57
:100CE8000B4F07EBC400FFF742FE0A4E6300234494
:100CF8009D0073191A7937F834109868FFF72CFE9D
:100D0800725D054B03F824200134E4B2E6E700BF26
:100D1800A0270008A82700084402002010B50446B0
:100D280000EB40039A00164B13441B79012B14D097
:100D380000EB40029300124A1A44124B03EBC00323
:100D480091785868FFF70EFE0F4B03EB84039870F9
:100D58000D4B03EB8404A07810BD00EB4002930018
:100D6800074A1A44074B03EBC00391785868FFF70A
:100D7800F9FD054B03EB840380F001009870E7E769
:100D8800A8270008A0270008440200202DE9F04702
:100D98008A46184D060133184FEA830905EB090402
:100DA8000122E16B94F84000FFF7B4FEFFF77EFEE6
:100DB800074694F84000FFF78BFEB7FBF0F7FFB249
:100DC8002069FFF7D4FD6069FFF7D1FD636901224F
:100DD80019885868FFF7C0FD3A46514655F809008A
:100DE800FFF7CEFE207EFFF709FE207EFFF7F8FD15
:100DF800BDE8F0875000002008B5FFF73FFF08BDA9
:100E080041B110B400EB00108200034B1344596049
:100E180010BC7047704700BF5000002041B110B4AB
:100E280000EB00108200034B1344996010BC70471C
:100E3800704700BF500000202DE9F04100EB00137F
:100E48009C00114B234493F828501DB101252846D6
:100E5800BDE8F0810C4E07013818830006EB030843
:100E6800C8F81C10C8F82420D8F82020895CF0584D
:100E7800FFF711FFD8F820300133C8F820300123DC
:100E880088F82830E3E700BF50000020F0B403469C
:100E980000EB001084000948204490F8380058B945
:100EA800064E1C01E718BD003544E9626A63012358
:100EB80085F83830F0BC70470120FBE7500000206F
:100EC80070B54FF48071324B1868FFF7E9FED8B956
:100ED80020212F4B1868FFF7E3FE012820D02C4B68
:100EE8001B6A002B39D04021294B1868FFF7D8FE20
:100EF80048B1274B1A6A5B6A9A4233D0244B93F85D
:100F08002830012B3AD070BD214C2068FFF7DDFE58
:100F18002068FFF7D3FEE368002BD9D09847D7E7BE
:100F28001B4B93F83830012BD9D1194CE66A256B45
:100F38002068FFF7B2FE7055236B01332363626BA1
:100F48009342CCD100222263E262626384F83820A3
:100F5800A368002BC3D09847C1E70D4B1868FFF76B
:100F6800A6FEC0E70A4B00221A62DA615A6283F8C9
:100F780028205B68002BC6D09847C4E7044CE36977
:100F8800995C2068FFF787FE236A01332362BAE77A
:100F98005000002070B54FF48071324B586CFFF749
:100FA8007FFED8B920212F4B586CFFF779FE012816
:100FB80020D02C4B5B6E002B39D04021294B586C2C
:100FC800FFF76EFE48B1274B5A6E9B6E9A4233D09C
:100FD800244B93F86C30012B3AD070BD214C606CD7
:100FE800FFF773FE606CFFF769FE236D002BD9D005
:100FF8009847D7E71B4B93F87C30012BD9D1194C74
:10100800266F656F606CFFF748FE7055636F01339C
:101018006367A26F9342CCD1002262672267A267FE
:1010280084F87C20E36C002BC3D09847C1E70D4BB4
:10103800586CFFF73CFEC0E70A4B00225A661A6656
:101048009A6683F86C209B6C002BC6D09847C4E73F
:10105800044C236E995C606CFFF71DFE636E0133D0
:101068006366BAE75000002070B54FF48071404BBA
:10107800D3F88800FFF714FE00BB20213C4BD3F8BF
:101088008800FFF70DFE012827D0394BD3F8A83088
:10109800002B49D04021364BD3F88800FFF700FEDB
:1010A80058B1334BD3F8A820D3F8AC309A4241D08A
:1010B8002F4B93F8B030012B4CD070BD2C4CD4F88A
:1010C8008800FFF702FED4F88800FFF7F7FDD4F890
:1010D8009430002BD1D09847CFE7254B93F8C030F8
:1010E800012BD2D1224CD4F8B460D4F8B850D4F83B
:1010F8008800FFF7D2FD7055D4F8B8300133C4F832
:10110800B830D4F8BC209342BFD10022C4F8B8202C
:10111800C4F8B420C4F8BC2084F8C020D4F89030B7
:10112800002BB2D09847B0E7114BD3F88800FFF7EF
:10113800BEFDAFE70E4B0022C3F8A820C3F8A420D9
:10114800C3F8AC2083F8B020D3F88C30002BB4D08F
:101158009847B2E7064CD4F8A430995CD4F88800D4
:10116800FFF799FDD4F8A8300133C4F8A830A4E7F4
:101178005000002038B51C4B1B78A3B11B4B1B68D3
:10118800112B06D01A4B02221A701A4B01221A7020
:1011980038BD01224FF480411748FFF7DDFB144B9F
:1011A80001221A70F1E7154B1B78002BEDD0FFF7E1
:1011B800C3FB134C20880D4DAB6803EB8020FFF771
:1011C8009FFBFFF7B9FBAB6820884FF480620D499D
:1011D80003EB8020FFF766FB238801332380044B51
:1011E80001221A70D1E700BF1C0100204806002028
:1011F8001D010020300200200010014031020020B3
:101208003402002048020020294B1B784BB1294B9F
:101218001B78012B13D0284B00221A70244B012273
:101228001A70254B1B788BB970B5244B5B68012B62
:1012380010D0022B25D01E4B01221A7070BD1E4BF8
:1012480001221A701A4B00221A70EAE71C4B01227D
:101258001A7070471B4C2668FFF76EFB1A4D28461C
:10126800FFF74EFB4FF0BB312846FFF7F5FA134B5B
:1012780019692046FFF7F0FA31462046FFF7ECFAE5
:10128800D9E7104C2668FFF757FB0F4D2846FFF7A4
:1012980037FB4FF0CC312846FFF7DEFA31462046BF
:1012A800FFF7DAFA054B19692046FFF7D5FAC2E7C6
:1012B8001C0100201D0100203102002048060020EA
:1012C80032020020043000080030000887467047CA
:1012D80070B584B0012204210220FFF71BFC012213
:1012E80008210220FFF716FC012210210220FFF737
:1012F80011FC4D4B02AA93E8030082E803006C46F8
:10130800083393E8030084E803001046FFF72FFB37
:101318002046FFF72CFB00224FF480414348FFF79B
:101328001BFB002280214248FFF716FBFFF7D4FC85
:101338000020FFF7F3FC60B93E4B1B68B3F1CC3FCC
:1013480022D0B3F1FF3F24D0B3F1BB3F17D004B094
:1013580070BD394C2668FFF7EFFA364D2846FFF77F
:10136800CFFA31462046FFF777FA31462046FFF795
:1013780073FA4FF0FF312846FFF76EFADCE72E4B81
:101388001868FFF7A3FFE2E72B4B1868FFF79EFFEB
:10139800DDE72A4C2046FFF72FFD21460020FFF706
:1013A800F5FC27490020FFF72BFD26490020FFF711
:1013B80035FD142224490020FFF768FD13E00024BE
:1013C800224B1C704FF47A70FFF7BCF901222049B8
:1013D8002046FFF731FD1F4B1B78BBB9154B1B6827
:1013E800B3F1FF3F1BD1194B1B78002BF3D0164BE1
:1013F800DA68194B1B889A42E1D10023164A1380F8
:10140800164A1370124B03221A70D8E70020114BAA
:1014180018704FF480621249FFF738FDDEE7114B70
:10142800114A1A60DFE700BFB42700080010014026
:101438000008014000300008043000085C06002065
:10144800111200087D110008480600203002002013
:101458001D01002032020020340200203102002049
:10146800480200200CED00E00400FA0581F000417C
:1014780002E000BF83F0004330B54FEA41044FEA71
:10148800430594EA050F08BF90EA020F1FBF54EA0C
:10149800000C55EA020C7FEA645C7FEA655C00F0A8
:1014A800E2804FEA5454D4EB5555B8BF6D420CDD79
:1014B8002C4480EA020281EA030382EA000083EAFC
:1014C800010180EA020281EA0303362D88BF30BD9C
:1014D80011F0004F4FEA01314FF4801C4CEA1131F2
:1014E80002D0404261EB410113F0004F4FEA033351
:1014F8004CEA133302D0524263EB430394EA050FDC
:1015080000F0A780A4F10104D5F1200E0DDB02FA4A
:101518000EFC22FA05F2801841F1000103FA0EF2DE
:10152800801843FA05F359410EE0A5F120050EF1A4
:10153800200E012A03FA0EFC28BF4CF0020C43FAD5
:1015480005F3C01851EBE37101F0004507D54FF0E2
:10155800000EDCF1000C7EEB00006EEB0101B1F532
:10156800801F1BD3B1F5001F0CD349085FEA300078
:101578004FEA3C0C04F101044FEA445212F5800F83
:1015880080F09A80BCF1004F08BF5FEA500C50F120
:10159800000041EB045141EA050130BD5FEA4C0C03
:1015A800404141EB010111F4801FA4F10104E9D18C
:1015B80091F0000F04BF01460020B1FA81F308BF83
:1015C8002033A3F10B03B3F120020CDA0C3208DD4F
:1015D80002F1140CC2F10C0201FA0CF021FA02F12A
:1015E8000CE002F11402D8BFC2F1200C01FA02F19A
:1015F80020FA0CFCDCBF41EA0C019040E41AA2BFBF
:1016080001EB0451294330BD6FEA04041F3C1CDA86
:101618000C340EDC04F11404C4F1200220FA04F0A6
:1016280001FA02F340EA030021FA04F345EA030150
:1016380030BDC4F10C04C4F1200220FA02F001FA12
:1016480004F340EA0300294630BD21FA04F0294694
:1016580030BD94F0000F83F4801306BF81F480112D
:101668000134013D4EE77FEA645C18BF7FEA655CA0
:1016780029D094EA050F08BF90EA020F05D054EA72
:10168800000C04BF1946104630BD91EA030F1EBF77
:101698000021002030BD5FEA545C05D1400049417B
:1016A80028BF41F0004130BD14F580043CBF01F56E
:1016B800801130BD01F0004545F0FE4141F4700154
:1016C8004FF0000030BD7FEA645C1ABF194610462F
:1016D8007FEA655C1CBF0B46024650EA013406BF30
:1016E80052EA033591EA030F41F4002130BD00BFEF
:1016F80090F0000F04BF0021704730B54FF48064AC
:1017080004F132044FF000054FF0000150E700BF2C
:1017180090F0000F04BF0021704730B54FF480648B
:1017280004F1320410F0004548BF40424FF0000178
:101738003EE700BF42004FEAE2014FEA31014FEABB
:1017480002701FBF12F07F4393F07F4F81F060510A
:10175800704732F07F4208BF704793F07F4F04BF55
:1017680041F40021704730B54FF4607401F0004532
:1017780021F000411CE700BF50EA010208BF704792
:1017880030B54FF000050AE050EA010208BF704783
:1017980030B511F0004502D5404261EB41014FF4EC
:1017A800806404F132045FEA915C3FF4D8AE4FF0F4
:1017B80003025FEADC0C18BF03325FEADC0C18BFD7
:1017C800033202EBDC02C2F1200300FA03FC20FA28
:1017D80002F001FA03FE40EA0E0021FA02F1144475
:1017E800BDE600BF4FF0FF3C06E000BF4FF0010C24
:1017F80002E000BF4FF0010C4DF804CD4FEA410C58
:101808007FEA6C5C4FEA430C18BF7FEA6C5C1BD024
:1018180001B050EA410C0CBF52EA430C91EA030FA5
:1018280002BF90EA020F0020704710F1000F91EA02
:10183800030F58BF994208BF90422CBFD8176FEAD0
:10184800E37040F0010070474FEA410C7FEA6C5C9E
:1018580002D150EA013C07D14FEA430C7FEA6C5CA5
:10186800D6D152EA033CD3D05DF8040B704700BFD1
:101878008446104662468C461946634600E000BF1F
:1018880001B5FFF7B7FF002848BF10F1000F01BDF1
:101898004DF808EDFFF7F4FF0CBF012000205DF8BC
:1018A80008FB00BF4DF808EDFFF7EAFF34BF012041
:1018B80000205DF808FB00BF4DF808EDFFF7E0FFDA
:1018C80094BF012000205DF808FB00BF4DF808ED2B
:1018D800FFF7CEFF94BF012000205DF808FB00BF92
:1018E8004DF808EDFFF7C4FF34BF012000205DF874
:1018F80008FB00BF80F0004002E000BF81F000411B
:1019080042001FBF5FEA410392EA030F7FEA226C9D
:101918007FEA236C6AD04FEA1262D2EB1363C1BF2D
:10192800D218414048404140B8BF5B42192B88BF9C
:10193800704710F0004F40F4000020F07F4018BFBF
:10194800404211F0004F41F4000121F07F4118BFDF
:10195800494292EA030F3FD0A2F1010241FA03FC87
:1019680010EB0C00C3F1200301FA03F100F000436F
:1019780002D5494260EB4000B0F5000F13D3B0F137
:10198800807F06D340084FEA310102F10102FE2AA6
:1019980051D2B1F1004F40EBC25008BF20F0010016
:1019A80040EA03007047490040EB000010F4000FC4
:1019B800A2F10102EDD1B0FA80FCACF1080CB2EB57
:1019C8000C0200FA0CF0AABF00EBC25052421843B6
:1019D800BCBFD0401843704792F0000F81F400015B
:1019E80006BF80F400000132013BB5E74FEA41032E
:1019F8007FEA226C18BF7FEA236C21D092EA030F9A
:101A080004D092F0000F08BF0846704790EA010F13
:101A18001CBF0020704712F07F4F04D1400028BF40
:101A280040F00040704712F100723CBF00F5000022
:101A3800704700F0004343F0FE4040F40000704758
:101A48007FEA226216BF08467FEA23630146420204
:101A580006BF5FEA412390EA010F40F48000704717
:101A68004FF0000304E000BF10F0004348BF4042BD
:101A78005FEA000C08BF704743F0964301464FF0F9
:101A880000001CE050EA010208BF70474FF0000355
:101A98000AE000BF50EA010208BF704711F0004396
:101AA80002D5404261EB41015FEA010C02BF844666
:101AB8000146002043F0B64308BFA3F18053A3F5C5
:101AC8000003BCFA8CF2083AA3EBC25310DB01FA0C
:101AD80002FC634400FA02FCC2F12002BCF1004F90
:101AE80020FA02F243EB020008BF20F00100704721
:101AF80002F1200201FA02FCC2F1200250EA4C0075
:101B080021FA02F243EB020008BF20EADC707047BA
:101B18004FF0FF0C1CEAD0521EBF1CEAD15392EAC8
:101B28000C0F93EA0C0F6FD01A4480EA010C4002A4
:101B380018BF5FEA41211ED04FF0006343EA5010FE
:101B480043EA5111A0FB01310CF00040B1F5000F40
:101B58003EBF490041EAD3715B0040EA010062F1EF
:101B68007F02FD2A1DD8B3F1004F40EBC25008BFD9
:101B780020F00100704790F0000F0CF0004C08BFF7
:101B880049024CEA502040EA51207F3AC2BFD2F1C4
:101B9800FF0340EAC250704740F400004FF00003D2
:101BA800013A5DDC12F1190FDCBF00F0004070470C
:101BB800C2F10002410021FA02F1C2F1200200FA4A
:101BC80002FC5FEA310040F1000053EA4C0308BF11
:101BD80020EADC70704792F0000F00F0004C02BF62
:101BE800400010F4000F013AF9D040EA0C0093F0DD
:101BF800000F01F0004C02BF490011F4000F013B37
:101C0800F9D041EA0C018FE70CEAD15392EA0C0FA4
:101C180018BF93EA0C0F0AD030F0004C18BF31F00F
:101C2800004CD8D180EA010000F00040704790F0E5
:101C3800000F17BF90F0004F084691F0000F91F089
:101C4800004F14D092EA0C0F01D142020FD193EA4F
:101C58000C0F03D14B0218BF084608D180EA0100D7
:101C680000F0004040F0FE4040F40000704740F0B3
:101C7800FE4040F4400070474FF0FF0C1CEAD05281
:101C88001EBF1CEAD15392EA0C0F93EA0C0F69D0DD
:101C9800A2EB030280EA010C49024FEA402037D048
:101CA8004FF0805343EA111143EA10130CF000403F
:101CB8008B4238BF5B0042F17D024FF4000C8B422F
:101CC80024BF5B1A40EA0C00B3EB510F24BFA3EB0F
:101CD800510340EA5C00B3EB910F24BFA3EB9103DF
:101CE80040EA9C00B3EBD10F24BFA3EBD10340EA39
:101CF800DC001B0118BF5FEA1C1CE0D1FD2A3FF67F
:101D080050AF8B4240EBC25008BF20F00100704733
:101D18000CF0004C4CEA50207F32C2BFD2F1FF03D6
:101D280040EAC250704740F400004FF00003013A07
:101D380037E792F0000F00F0004C02BF400010F4AB
:101D4800000F013AF9D040EA0C0093F0000F01F0BF
:101D5800004C02BF490011F4000F013BF9D041EAE1
:101D68000C0195E70CEAD15392EA0C0F08D1420214
:101D78007FF47DAF93EA0C0F7FF470AF084676E7E7
:101D880093EA0C0F04D14B023FF44CAF08466EE7C0
:101D980030F0004C18BF31F0004CCAD130F000428E
:101DA8007FF45CAF31F000437FF43CAF5FE700BFE6
:101DB80042000ED2B2F1FE4F0BD34FF09E03B3EBAD
:101DC800126209D44FEA002343F0004323FA02F0D9
:101DD80070474FF00000704712F1610F01D14202C5
:101DE80002D14FF0FF3070474FF00000704700BF3E
:101DF800014B1868704700BF2001002030B5141E41
:101E080005469BB0184605DA8B234FF0FF302B6050
:101E18001BB030BD4FF40273ADF80C300CBF234635
:101E280004F1FF33029305934FF6FF730091049179
:101E3800ADF80E3002461E9B6946284600F072F83F
:101E4800431CBCBF8B232B60002CE1D00022009BDD
:101E58001A70DDE707B5009313460A4601460348A2
:101E68000068FFF7CBFF03B05DF804FB20010020FA
:101E78002DE9F0478E6882469E420C469046994668
:101E880037D88A8912F4906F31D0022325680969FE
:101E98006F1A656905EB450595FBF3F509F1010333
:101EA8003B449D4238BF1D46530530D5294600F0B6
:101EB80035FB064650B90C234FF0FF30CAF8003006
:101EC800A38943F04003A381BDE8F0873A4621691E
:101ED80000F0B4FAA38923F4906343F08003A3814C
:101EE80026613E4426604E466561ED1BA5604E4561
:101EF80000D94E4632464146206800F0AAFAA36847
:101F080000209B1BA36023681E442660DCE72A464A
:101F180000F05EFB06460028E2D12169504600F039
:101F2800B1FAC8E72DE9F04F9DB003938B8980463D
:101F38001D060C4616460FD50B696BB9402100F0FB
:101F4800EDFA2060206128B90C23C8F800304FF062
:101F5800FF30C7E0402363610023099320238DF8F5
:101F6800293030234FF0010B8DF82A3037463D4693
:101F780015F8013B0BB1252B3ED1B7EB060A0BD068
:101F88005346324621464046FFF772FF013000F0C3
:101F9800A480099B534409933B78002B00F09D8053
:101FA80000234FF0FF32CDE90523049307938DF802
:101FB80053301A932F46052217F8011B4F4800F09B
:101FC8002FFA049BD0B9D90644BF20228DF853209C
:101FD8001A0744BF2B228DF853202A782A2A15D0B5
:101FE8002F4600200A25079A394611F8013B303B55
:101FF800092B4DD9B8B10FE02F46B8E73F4A3D4607
:10200800801A0BFA00F018430490D3E7039A111DC5
:1020180012680391002A01DB079204E0524243F060
:102028000203079204933B782E2B0CD17B782A2B42
:1020380033D1039B02371A1D1B680392002BB8BFCC
:102048004FF0FF3305932E4D03223978284600F0D0
:10205800E7F938B14023401B03FA00F0049B01372D
:10206800034304933978062226487E1C8DF82810ED
:1020780000F0D6F9002838D0234B13BB039B073355
:1020880023F0070308330393099B4B4409936DE737
:1020980005FB023201200F46A6E700230A25194650
:1020A80001370593384610F8012B303A092A03D92D
:1020B800002BC8D00591C6E705FB0121012307467F
:1020C800F0E703AB00932246104B04A94046AFF358
:1020D8000080B0F1FF3F8146D6D1A3895B063FF56A
:1020E80036AF09981DB0BDE8F08F03AB00932246C8
:1020F800064B04A9404600F081F8EAE7C427000827
:10210800CA270008CE27000800000000791E000832
:102118002DE9F04791461F468A680B6906469342A7
:10212800B8BF1346C9F8003091F843200C46DDF8D3
:10213800208012B10133C9F800302368990642BFE4
:10214800D9F800300233C9F80030256815F00605C3
:1021580007D104F1190AE368D9F800209B1AAB42A9
:1021680029DC94F843302268003318BF0123920613
:102178002ED404F1430239463046C047013021D0FD
:102188002368E56803F00603042B18BF0025D9F877
:1021980000204FF0000908BFAD1AA368226908BFE4
:1021A80025EAE5759342C4BF9B1AED181A344D45CC
:1021B8001AD1002008E00123524639463046C0476C
:1021C800013003D14FF0FF30BDE8F0870135C2E799
:1021D8003020E11881F843005A1C94F84510224435
:1021E800023382F84310C4E70123224639463046B9
:1021F800C0470130E6D009F10109D8E72DE9F043DD
:1022080001F1430C0C46097E85B06E291746064637
:1022180098460C9A00F0B38022D8632936D00AD8A1
:10222800002900F0B980582900F0838004F14205A4
:1022380084F8421032E0642901D06929F6D1206877
:102248001368050603F104012AD51B681160002BE9
:1022580003DA2D225B4284F843206F480A2239E0D2
:10226800732900F09D8008D86F2920D07029DDD10E
:10227800236843F02003236003E0752917D07829E9
:10228800D4D17823654884F8453055E0136804F1C3
:102298004205191D1B68116084F8423001238CE047
:1022A8001B6810F0400F116018BF1BB2CFE713680E
:1022B8002568181D1060280601D51B6802E068060D
:1022C800FBD51B886F2914BF0A2208225248002117
:1022D80084F843106568002DA560C0F295802168D8
:1022E80021F004012160002B3DD1002D40F08E80AB
:1022F8006546082A0BD12368DB0708D5236962687D
:102308009A42DEBF302305F8013C05F1FF35ACEBFE
:1023180005032361CDF800803B4603AA21463046D9
:10232800FFF7F6FE01304DD14FF0FF3005B0BDE8A4
:10233800F083394884F84510136821681D1D1B680F
:1023480015600A060BD5CA0744BF41F02001216079
:102358001BB9226822F0200222601022B7E74D063E
:1023680048BF9BB2EFE76546B3FBF2F102FB1133BE
:10237800C35C05F8013D0B460029F5D1B9E71368A0
:102388002568181D6169106028061B6801D5196049
:1023980002E06A06FBD51980002365462361B9E788
:1023A8001368191D11601D6862680021284600F035
:1023B80037F808B1401B606063682361002384F824
:1023C8004330A7E723692A4639463046C0470130DB
:1023D800AAD023689B0713D4E068039B9842B8BF30
:1023E8001846A3E701234A4639463046C04701301C
:1023F8009AD00135E368039A9B1AAB42F2DCEBE70B
:10240800002504F11909F5E7002BACD1037804F194
:10241800420584F842306CE7D5270008E627000813
:1024280010B5C9B202449042034601D1002303E02B
:102438001C7801308C42F6D1184610BD10B5431EE9
:102448000A44914200D110BD11F8014B03F8014F25
:10245800F7E7884210B501EB020307D8421E9942FC
:102468000AD011F8014B02F8014FF8E78342F5D979
:102478008118D21AD34200D110BD13F8014D01F8CA
:10248800014DF7E738B50546002943D051F8043C1B
:102498000C1F002BB8BFE41800F0D0F81E4A1368D0
:1024A800104633B9636014602846BDE8384000F030
:1024B800C6B8A3420BD921686218934201BF1A68B3
:1024C8005B685218226063600460EDE713465A683F
:1024D8000AB1A242FAD919685818A0420BD120684B
:1024E8000144581882421960DED1106852680144CC
:1024F80019605A60D8E702D90C232B60D4E720680A
:1025080021188A4201BF1168526809182160626067
:102518005C60C9E738BD00BF3802002070B5CD1C2B
:1025280025F0030508350C2D38BF0C25002D06466F
:1025380001DBA94203D90C233360002070BD00F0F1
:102548007DF8214A1468214691B9204C23681BB9AB
:10255800304600F063F820602946304600F05EF807
:10256800431C24D10C233046336000F068F8E4E7BC
:102578000B685B1B18D40B2B0FD90B60CC18CD50F4
:10258800304600F05CF804F10B00231D20F0070032
:10259800C31AD3D05A42E250D0E74B688C4216BFD8
:1025A800636013600C46EBE70C464968CCE7C41C33
:1025B80024F00304A04205D0211A304600F02EF87A
:1025C8000130CFD02560DBE7380200203C02002034
:1025D800F8B5074614460E4621B9BDE8F84011463D
:1025E800FFF79CBF22B9FFF74DFF25462846F8BDE7
:1025F80000F026F8A0420FD221463846FFF78EFF9A
:1026080005460028F2D031462246FFF717FF31462B
:102618003846FFF737FFE9E73546E7E738B50023DF
:10262800054C054608462360FDF7A4FE431C02D16D
:10263800236803B12B6038BD400200207047704703
:1026480051F8043C181F002BBCBF0B58C01870472A
:10265800537461636B206672616D653A0A0000000D
:10266800205230203D2020253038580A0000000034
:10267800205231203D2020253038580A0000000023
:10268800205232203D2020253038580A0000000012
:10269800205233203D2020253038580A0000000001
:1026A80020523132203D20253038580A00000000E1
:1026B800204C52203D2020253038580A00000000C8
:1026C800205043203D2020253038580A00000000C3
:1026D80020505352203D20253038580A0000000071
:1026E8004653522F4641523A0A00000020434653AF
:1026F80052203D2020253038580A000020484653F3
:1027080052203D2020253038580A000020444653E6
:1027180052203D2020253038580A000020414653D9
:1027280052203D2020253038580A0000204D4D46C3
:102738004152203D20253038580A000020424641A9
:1027480052203D2020253038580A00004D69736317
:102758000A000000204C522F4558435F52455455FB
:10276800524E3D20253038580A0000005B486172FF
:10277800644661756C745D0A000000005B42757305
:102788004661756C745D0A005B55736167654661E7
:10279800756C745D0A00000000800800001001409C
:1027A80000000F000100000000100140004001007F
:1027B800001001408000010000080140232D302B4B
:1027C8002000686C4C00656667454647003031322A
:1027D8003334353637383941424344454600303181
:0F27E800323334353637383961626364656600E1
:1027F800785634129001002000000000000000000C
:1028080000000000010203040607080900A24A04A8
:102818000004080000080140000209000008014007
:1028280008000800000801400400090000080140F1
:1028380000080800000C014000040900000C0140D9
:102848000038014000000000000000000000000007
:1028580028000020200000202500000000000000C3
:102868000000000000000000000000000000000060
:102878000000000000000000000000000040000010
:1028880002030400004400400000000000000000B3
:102898000000000038000020300000202600000062
:1028A8000000000000000000000000000000000020
:1028B8000000000000000000000000000000000010
:1028C800000002000105060000480040000000006A
:1028D8000000000000000000480000204000002028
:1028E80027000000000000000000000000000000B9
:1028F80000000000000000000000000000000000D0
:102908000000000000000400010102000102FFFFB6
:10291800240100200000000000000000000000006A
:10292800000000000000000000000000000000009F
:10293800000000000000000000000000000000008F
:10294800000000000000000000000000000000007F
:10295800000000000000000000000000000000006F
:10296800000000000000000000000000000000005F
:082978000000000032547698C3
:040000050800010DE1
:00000001FF
